{
  "_format": "hh-sol-artifact-1",
  "contractName": "Staking",
  "sourceName": "contracts/STAKING.sol",
  "abi": [
    {
      "anonymous": false,
      "inputs": [
        {
          "indexed": false,
          "internalType": "address",
          "name": "addr",
          "type": "address"
        },
        {
          "indexed": false,
          "internalType": "uint256",
          "name": "amount",
          "type": "uint256"
        }
      ],
      "name": "Claim",
      "type": "event"
    },
    {
      "anonymous": false,
      "inputs": [
        {
          "indexed": false,
          "internalType": "address",
          "name": "depositor",
          "type": "address"
        },
        {
          "indexed": false,
          "internalType": "uint256",
          "name": "amount",
          "type": "uint256"
        }
      ],
      "name": "Deposit",
      "type": "event"
    },
    {
      "anonymous": false,
      "inputs": [
        {
          "indexed": true,
          "internalType": "address",
          "name": "previousOwner",
          "type": "address"
        },
        {
          "indexed": true,
          "internalType": "address",
          "name": "newOwner",
          "type": "address"
        }
      ],
      "name": "OwnershipTransferred",
      "type": "event"
    },
    {
      "anonymous": false,
      "inputs": [
        {
          "indexed": false,
          "internalType": "address",
          "name": "addr",
          "type": "address"
        },
        {
          "indexed": false,
          "internalType": "uint256",
          "name": "amount",
          "type": "uint256"
        }
      ],
      "name": "Update",
      "type": "event"
    },
    {
      "anonymous": false,
      "inputs": [
        {
          "indexed": false,
          "internalType": "address",
          "name": "withdrawer",
          "type": "address"
        },
        {
          "indexed": false,
          "internalType": "uint256",
          "name": "amount",
          "type": "uint256"
        }
      ],
      "name": "Withdrawal",
      "type": "event"
    },
    {
      "inputs": [],
      "name": "ClaimRewards",
      "outputs": [],
      "stateMutability": "payable",
      "type": "function"
    },
    {
      "inputs": [
        {
          "internalType": "contract ChainlinkETHprice",
          "name": "OracleAddress",
          "type": "address"
        }
      ],
      "name": "SetOracle",
      "outputs": [],
      "stateMutability": "nonpayable",
      "type": "function"
    },
    {
      "inputs": [
        {
          "internalType": "contract ReWarD",
          "name": "ReWarDaddress",
          "type": "address"
        }
      ],
      "name": "SetReWarD",
      "outputs": [],
      "stateMutability": "nonpayable",
      "type": "function"
    },
    {
      "inputs": [],
      "name": "UpdateReward",
      "outputs": [],
      "stateMutability": "nonpayable",
      "type": "function"
    },
    {
      "inputs": [],
      "name": "WithdrawaAllAndClaimRewards",
      "outputs": [],
      "stateMutability": "payable",
      "type": "function"
    },
    {
      "inputs": [
        {
          "internalType": "address",
          "name": "",
          "type": "address"
        },
        {
          "internalType": "uint256",
          "name": "",
          "type": "uint256"
        }
      ],
      "name": "data",
      "outputs": [
        {
          "internalType": "uint256",
          "name": "",
          "type": "uint256"
        }
      ],
      "stateMutability": "view",
      "type": "function"
    },
    {
      "inputs": [],
      "name": "deposit",
      "outputs": [],
      "stateMutability": "payable",
      "type": "function"
    },
    {
      "inputs": [],
      "name": "getETHTVL",
      "outputs": [
        {
          "internalType": "uint256",
          "name": "",
          "type": "uint256"
        }
      ],
      "stateMutability": "view",
      "type": "function"
    },
    {
      "inputs": [
        {
          "internalType": "address",
          "name": "addr",
          "type": "address"
        }
      ],
      "name": "getOldRewards",
      "outputs": [
        {
          "internalType": "uint256",
          "name": "",
          "type": "uint256"
        }
      ],
      "stateMutability": "view",
      "type": "function"
    },
    {
      "inputs": [
        {
          "internalType": "address",
          "name": "addr",
          "type": "address"
        }
      ],
      "name": "getStakedBalance",
      "outputs": [
        {
          "internalType": "uint256",
          "name": "",
          "type": "uint256"
        }
      ],
      "stateMutability": "view",
      "type": "function"
    },
    {
      "inputs": [],
      "name": "getVaultBalance",
      "outputs": [
        {
          "internalType": "uint256",
          "name": "",
          "type": "uint256"
        }
      ],
      "stateMutability": "view",
      "type": "function"
    },
    {
      "inputs": [],
      "name": "owner",
      "outputs": [
        {
          "internalType": "address",
          "name": "",
          "type": "address"
        }
      ],
      "stateMutability": "view",
      "type": "function"
    },
    {
      "inputs": [],
      "name": "renounceOwnership",
      "outputs": [],
      "stateMutability": "nonpayable",
      "type": "function"
    },
    {
      "inputs": [
        {
          "internalType": "address",
          "name": "newOwner",
          "type": "address"
        }
      ],
      "name": "transferOwnership",
      "outputs": [],
      "stateMutability": "nonpayable",
      "type": "function"
    },
    {
      "inputs": [
        {
          "internalType": "uint256",
          "name": "amount",
          "type": "uint256"
        }
      ],
      "name": "withdrawal",
      "outputs": [],
      "stateMutability": "payable",
      "type": "function"
    }
  ],
  "bytecode": "0x608060405234801561001057600080fd5b5061002d61002261003260201b60201c565b61003a60201b60201c565b6100fe565b600033905090565b60008060009054906101000a900473ffffffffffffffffffffffffffffffffffffffff169050816000806101000a81548173ffffffffffffffffffffffffffffffffffffffff021916908373ffffffffffffffffffffffffffffffffffffffff1602179055508173ffffffffffffffffffffffffffffffffffffffff168173ffffffffffffffffffffffffffffffffffffffff167f8be0079c531659141344cd1fd0a4f28419497f9722a3daafe3b4186f6b6457e060405160405180910390a35050565b6119368061010d6000396000f3fe6080604052600436106100e85760003560e01c80638da5cb5b1161008a578063df71983311610059578063df71983314610260578063e283b4dd14610277578063ed12e8ef146102b4578063f2fde38b146102df576100e8565b80638da5cb5b146101f8578063c70b745c14610223578063d0e30db01461022d578063d3b5d1e014610237576100e8565b80633a02a42d116100c65780633a02a42d1461015f5780633fbe0eaa1461019c578063715018a6146101c5578063835fc6ca146101dc576100e8565b806312798972146100ed57806326bfb10a146100f75780633627ff4514610122575b600080fd5b6100f5610308565b005b34801561010357600080fd5b5061010c61048c565b60405161011991906111cf565b60405180910390f35b34801561012e57600080fd5b506101496004803603810190610144919061124d565b610496565b60405161015691906111cf565b60405180910390f35b34801561016b57600080fd5b506101866004803603810190610181919061124d565b6104f3565b60405161019391906111cf565b60405180910390f35b3480156101a857600080fd5b506101c360048036038101906101be91906112b8565b610550565b005b3480156101d157600080fd5b506101da610609565b005b6101f660048036038101906101f19190611311565b610691565b005b34801561020457600080fd5b5061020d61087e565b60405161021a919061134d565b60405180910390f35b61022b6108a7565b005b610235610a4d565b005b34801561024357600080fd5b5061025e600480360381019061025991906113a6565b610bb0565b005b34801561026c57600080fd5b50610275610c69565b005b34801561028357600080fd5b5061029e600480360381019061029991906113d3565b610fc3565b6040516102ab91906111cf565b60405180910390f35b3480156102c057600080fd5b506102c9610feb565b6040516102d691906111cf565b60405180910390f35b3480156102eb57600080fd5b506103066004803603810190610301919061124d565b610ff3565b005b610310610c69565b6000600460003373ffffffffffffffffffffffffffffffffffffffff1673ffffffffffffffffffffffffffffffffffffffff16815260200190815260200160002060036004811061036457610363611413565b5b015490506000600460003373ffffffffffffffffffffffffffffffffffffffff1673ffffffffffffffffffffffffffffffffffffffff1681526020019081526020016000206003600481106103bc576103bb611413565b5b0181905550600160009054906101000a900473ffffffffffffffffffffffffffffffffffffffff1673ffffffffffffffffffffffffffffffffffffffff16630f6798a533836040518363ffffffff1660e01b815260040161041e929190611442565b600060405180830381600087803b15801561043857600080fd5b505af115801561044c573d6000803e3d6000fd5b505050507f47cee97cb7acd717b3c0aa1435d004cd5b3c8c57d70dbceb4e4458bbd60e39d43382604051610481929190611442565b60405180910390a150565b6000600354905090565b6000600460008373ffffffffffffffffffffffffffffffffffffffff1673ffffffffffffffffffffffffffffffffffffffff1681526020019081526020016000206003600481106104ea576104e9611413565b5b01549050919050565b6000600460008373ffffffffffffffffffffffffffffffffffffffff1673ffffffffffffffffffffffffffffffffffffffff16815260200190815260200160002060006004811061054757610546611413565b5b01549050919050565b61055861087e565b73ffffffffffffffffffffffffffffffffffffffff163373ffffffffffffffffffffffffffffffffffffffff16146105c5576040517f08c379a00000000000000000000000000000000000000000000000000000000081526004016105bc906114c8565b60405180910390fd5b80600160006101000a81548173ffffffffffffffffffffffffffffffffffffffff021916908373ffffffffffffffffffffffffffffffffffffffff16021790555050565b6106116110ea565b73ffffffffffffffffffffffffffffffffffffffff1661062f61087e565b73ffffffffffffffffffffffffffffffffffffffff1614610685576040517f08c379a000000000000000000000000000000000000000000000000000000000815260040161067c90611534565b60405180910390fd5b61068f60006110f2565b565b600081116106d4576040517f08c379a00000000000000000000000000000000000000000000000000000000081526004016106cb906115a0565b60405180910390fd5b80600460003373ffffffffffffffffffffffffffffffffffffffff1673ffffffffffffffffffffffffffffffffffffffff16815260200190815260200160002060006004811061072757610726611413565b5b0154101561076a576040517f08c379a00000000000000000000000000000000000000000000000000000000081526004016107619061160c565b60405180910390fd5b610772610c69565b80600460003373ffffffffffffffffffffffffffffffffffffffff1673ffffffffffffffffffffffffffffffffffffffff1681526020019081526020016000206000600481106107c5576107c4611413565b5b0160008282546107d5919061165b565b9250508190555080600360008282546107ee919061165b565b9250508190555060003390508073ffffffffffffffffffffffffffffffffffffffff166108fc839081150290604051600060405180830381858888f19350505050158015610840573d6000803e3d6000fd5b507f7fcf532c15f0a6db0bd6d0e038bea71d30d808c7d98cb3bf7268a95bf5081b653383604051610872929190611442565b60405180910390a15050565b60008060009054906101000a900473ffffffffffffffffffffffffffffffffffffffff16905090565b6000600460003373ffffffffffffffffffffffffffffffffffffffff1673ffffffffffffffffffffffffffffffffffffffff1681526020019081526020016000206000600481106108fb576108fa611413565b5b0154905060008111610942576040517f08c379a0000000000000000000000000000000000000000000000000000000008152600401610939906115a0565b60405180910390fd5b61094a610c69565b6000600460003373ffffffffffffffffffffffffffffffffffffffff1673ffffffffffffffffffffffffffffffffffffffff16815260200190815260200160002060006004811061099e5761099d611413565b5b018190555080600360008282546109b5919061165b565b9250508190555060003390508073ffffffffffffffffffffffffffffffffffffffff166108fc839081150290604051600060405180830381858888f19350505050158015610a07573d6000803e3d6000fd5b507f7fcf532c15f0a6db0bd6d0e038bea71d30d808c7d98cb3bf7268a95bf5081b653383604051610a39929190611442565b60405180910390a1610a49610308565b5050565b60003411610a90576040517f08c379a0000000000000000000000000000000000000000000000000000000008152600401610a87906116db565b60405180910390fd5b343373ffffffffffffffffffffffffffffffffffffffff16311015610aea576040517f08c379a0000000000000000000000000000000000000000000000000000000008152600401610ae19061160c565b60405180910390fd5b610af2610c69565b34600460003373ffffffffffffffffffffffffffffffffffffffff1673ffffffffffffffffffffffffffffffffffffffff168152602001908152602001600020600060048110610b4557610b44611413565b5b016000828254610b5591906116fb565b925050819055503460036000828254610b6e91906116fb565b925050819055507fe1fffcc4923d04b559f4d29a8bfc6cda04eb5b0d3c460751c2402c5c5cc9109c3334604051610ba6929190611442565b60405180910390a1565b610bb861087e565b73ffffffffffffffffffffffffffffffffffffffff163373ffffffffffffffffffffffffffffffffffffffff1614610c25576040517f08c379a0000000000000000000000000000000000000000000000000000000008152600401610c1c906114c8565b60405180910390fd5b80600260006101000a81548173ffffffffffffffffffffffffffffffffffffffff021916908373ffffffffffffffffffffffffffffffffffffffff16021790555050565b6000600260009054906101000a900473ffffffffffffffffffffffffffffffffffffffff1673ffffffffffffffffffffffffffffffffffffffff16638e15f4736040518163ffffffff1660e01b8152600401602060405180830381865afa158015610cd8573d6000803e3d6000fd5b505050506040513d601f19601f82011682018060405250810190610cfc9190611787565b9050600081905060004290506000600460003373ffffffffffffffffffffffffffffffffffffffff1673ffffffffffffffffffffffffffffffffffffffff168152602001908152602001600020600060048110610d5c57610d5b611413565b5b0154905060003390506000821115610ed3576000600460008373ffffffffffffffffffffffffffffffffffffffff1673ffffffffffffffffffffffffffffffffffffffff168152602001908152602001600020600260048110610dc257610dc1611413565b5b015490506000600460008473ffffffffffffffffffffffffffffffffffffffff1673ffffffffffffffffffffffffffffffffffffffff168152602001908152602001600020600160048110610e1a57610e19611413565b5b015490506402540be400601f8287610e32919061165b565b8885610e3e91906116fb565b87610e4991906117b4565b610e5391906117b4565b610e5d91906117b4565b610e67919061183d565b600460008573ffffffffffffffffffffffffffffffffffffffff1673ffffffffffffffffffffffffffffffffffffffff168152602001908152602001600020600360048110610eb957610eb8611413565b5b016000828254610ec991906116fb565b9250508190555050505b83600460008373ffffffffffffffffffffffffffffffffffffffff1673ffffffffffffffffffffffffffffffffffffffff168152602001908152602001600020600260048110610f2657610f25611413565b5b018190555082600460008373ffffffffffffffffffffffffffffffffffffffff1673ffffffffffffffffffffffffffffffffffffffff168152602001908152602001600020600160048110610f7e57610f7d611413565b5b01819055507f5f66d2a93b609bc6596b75c6dbb0e4f3f7cafd4b3b617157ff304d1076e583758183604051610fb4929190611442565b60405180910390a15050505050565b60046020528160005260406000208160048110610fdf57600080fd5b01600091509150505481565b600047905090565b610ffb6110ea565b73ffffffffffffffffffffffffffffffffffffffff1661101961087e565b73ffffffffffffffffffffffffffffffffffffffff161461106f576040517f08c379a000000000000000000000000000000000000000000000000000000000815260040161106690611534565b60405180910390fd5b600073ffffffffffffffffffffffffffffffffffffffff168173ffffffffffffffffffffffffffffffffffffffff16036110de576040517f08c379a00000000000000000000000000000000000000000000000000000000081526004016110d5906118e0565b60405180910390fd5b6110e7816110f2565b50565b600033905090565b60008060009054906101000a900473ffffffffffffffffffffffffffffffffffffffff169050816000806101000a81548173ffffffffffffffffffffffffffffffffffffffff021916908373ffffffffffffffffffffffffffffffffffffffff1602179055508173ffffffffffffffffffffffffffffffffffffffff168173ffffffffffffffffffffffffffffffffffffffff167f8be0079c531659141344cd1fd0a4f28419497f9722a3daafe3b4186f6b6457e060405160405180910390a35050565b6000819050919050565b6111c9816111b6565b82525050565b60006020820190506111e460008301846111c0565b92915050565b600080fd5b600073ffffffffffffffffffffffffffffffffffffffff82169050919050565b600061121a826111ef565b9050919050565b61122a8161120f565b811461123557600080fd5b50565b60008135905061124781611221565b92915050565b600060208284031215611263576112626111ea565b5b600061127184828501611238565b91505092915050565b60006112858261120f565b9050919050565b6112958161127a565b81146112a057600080fd5b50565b6000813590506112b28161128c565b92915050565b6000602082840312156112ce576112cd6111ea565b5b60006112dc848285016112a3565b91505092915050565b6112ee816111b6565b81146112f957600080fd5b50565b60008135905061130b816112e5565b92915050565b600060208284031215611327576113266111ea565b5b6000611335848285016112fc565b91505092915050565b6113478161120f565b82525050565b6000602082019050611362600083018461133e565b92915050565b60006113738261120f565b9050919050565b61138381611368565b811461138e57600080fd5b50565b6000813590506113a08161137a565b92915050565b6000602082840312156113bc576113bb6111ea565b5b60006113ca84828501611391565b91505092915050565b600080604083850312156113ea576113e96111ea565b5b60006113f885828601611238565b9250506020611409858286016112fc565b9150509250929050565b7f4e487b7100000000000000000000000000000000000000000000000000000000600052603260045260246000fd5b6000604082019050611457600083018561133e565b61146460208301846111c0565b9392505050565b600082825260208201905092915050565b7f6e6f74206f776e65720000000000000000000000000000000000000000000000600082015250565b60006114b260098361146b565b91506114bd8261147c565b602082019050919050565b600060208201905081810360008301526114e1816114a5565b9050919050565b7f4f776e61626c653a2063616c6c6572206973206e6f7420746865206f776e6572600082015250565b600061151e60208361146b565b9150611529826114e8565b602082019050919050565b6000602082019050818103600083015261154d81611511565b9050919050565b7f6e6f2030207769746864726177616c0000000000000000000000000000000000600082015250565b600061158a600f8361146b565b915061159582611554565b602082019050919050565b600060208201905081810360008301526115b98161157d565b9050919050565b7f6c61636b206f662066756e647300000000000000000000000000000000000000600082015250565b60006115f6600d8361146b565b9150611601826115c0565b602082019050919050565b60006020820190508181036000830152611625816115e9565b9050919050565b7f4e487b7100000000000000000000000000000000000000000000000000000000600052601160045260246000fd5b6000611666826111b6565b9150611671836111b6565b9250828210156116845761168361162c565b5b828203905092915050565b7f6e6f2030206465706f7369740000000000000000000000000000000000000000600082015250565b60006116c5600c8361146b565b91506116d08261168f565b602082019050919050565b600060208201905081810360008301526116f4816116b8565b9050919050565b6000611706826111b6565b9150611711836111b6565b9250827fffffffffffffffffffffffffffffffffffffffffffffffffffffffffffffffff038211156117465761174561162c565b5b828201905092915050565b6000819050919050565b61176481611751565b811461176f57600080fd5b50565b6000815190506117818161175b565b92915050565b60006020828403121561179d5761179c6111ea565b5b60006117ab84828501611772565b91505092915050565b60006117bf826111b6565b91506117ca836111b6565b9250817fffffffffffffffffffffffffffffffffffffffffffffffffffffffffffffffff04831182151516156118035761180261162c565b5b828202905092915050565b7f4e487b7100000000000000000000000000000000000000000000000000000000600052601260045260246000fd5b6000611848826111b6565b9150611853836111b6565b9250826118635761186261180e565b5b828204905092915050565b7f4f776e61626c653a206e6577206f776e657220697320746865207a65726f206160008201527f6464726573730000000000000000000000000000000000000000000000000000602082015250565b60006118ca60268361146b565b91506118d58261186e565b604082019050919050565b600060208201905081810360008301526118f9816118bd565b905091905056fea2646970667358221220b5b1545b8ceb84357d1d5893ccbb164382befd04e5d54c2e85a33f625cab126564736f6c634300080d0033",
  "linkReferences": {},
  "deployedLinkReferences": {}
}