{
  "_format": "hh-sol-artifact-1",
  "contractName": "Staking",
  "sourceName": "contracts/STAKING.sol",
  "abi": [
    {
      "anonymous": false,
      "inputs": [
        {
          "indexed": false,
          "internalType": "address",
          "name": "addr",
          "type": "address"
        },
        {
          "indexed": false,
          "internalType": "uint256",
          "name": "amount",
          "type": "uint256"
        }
      ],
      "name": "Claim",
      "type": "event"
    },
    {
      "anonymous": false,
      "inputs": [
        {
          "indexed": false,
          "internalType": "address",
          "name": "depositor",
          "type": "address"
        },
        {
          "indexed": false,
          "internalType": "uint256",
          "name": "amount",
          "type": "uint256"
        }
      ],
      "name": "Deposit",
      "type": "event"
    },
    {
      "anonymous": false,
      "inputs": [
        {
          "indexed": true,
          "internalType": "address",
          "name": "previousOwner",
          "type": "address"
        },
        {
          "indexed": true,
          "internalType": "address",
          "name": "newOwner",
          "type": "address"
        }
      ],
      "name": "OwnershipTransferred",
      "type": "event"
    },
    {
      "anonymous": false,
      "inputs": [
        {
          "indexed": false,
          "internalType": "address",
          "name": "addr",
          "type": "address"
        },
        {
          "indexed": false,
          "internalType": "uint256",
          "name": "amount",
          "type": "uint256"
        }
      ],
      "name": "Update",
      "type": "event"
    },
    {
      "anonymous": false,
      "inputs": [
        {
          "indexed": false,
          "internalType": "address",
          "name": "withdrawer",
          "type": "address"
        },
        {
          "indexed": false,
          "internalType": "uint256",
          "name": "amount",
          "type": "uint256"
        }
      ],
      "name": "Withdrawal",
      "type": "event"
    },
    {
      "inputs": [],
      "name": "ClaimRewards",
      "outputs": [],
      "stateMutability": "nonpayable",
      "type": "function"
    },
    {
      "inputs": [
        {
          "internalType": "contract ChainlinkETHprice",
          "name": "OracleAddress",
          "type": "address"
        }
      ],
      "name": "SetOracle",
      "outputs": [],
      "stateMutability": "nonpayable",
      "type": "function"
    },
    {
      "inputs": [
        {
          "internalType": "contract ReWarD",
          "name": "ReWarDaddress",
          "type": "address"
        }
      ],
      "name": "SetReWarD",
      "outputs": [],
      "stateMutability": "nonpayable",
      "type": "function"
    },
    {
      "inputs": [],
      "name": "UpdateReward",
      "outputs": [],
      "stateMutability": "nonpayable",
      "type": "function"
    },
    {
      "inputs": [],
      "name": "WithdrawAllAndClaimRewards",
      "outputs": [],
      "stateMutability": "nonpayable",
      "type": "function"
    },
    {
      "inputs": [
        {
          "internalType": "address",
          "name": "",
          "type": "address"
        },
        {
          "internalType": "uint256",
          "name": "",
          "type": "uint256"
        }
      ],
      "name": "data",
      "outputs": [
        {
          "internalType": "uint256",
          "name": "",
          "type": "uint256"
        }
      ],
      "stateMutability": "view",
      "type": "function"
    },
    {
      "inputs": [],
      "name": "deposit",
      "outputs": [],
      "stateMutability": "payable",
      "type": "function"
    },
    {
      "inputs": [],
      "name": "getETHTVL",
      "outputs": [
        {
          "internalType": "uint256",
          "name": "",
          "type": "uint256"
        }
      ],
      "stateMutability": "view",
      "type": "function"
    },
    {
      "inputs": [
        {
          "internalType": "address",
          "name": "addr",
          "type": "address"
        }
      ],
      "name": "getOldRewards",
      "outputs": [
        {
          "internalType": "uint256",
          "name": "",
          "type": "uint256"
        }
      ],
      "stateMutability": "view",
      "type": "function"
    },
    {
      "inputs": [
        {
          "internalType": "address",
          "name": "addr",
          "type": "address"
        }
      ],
      "name": "getStakedBalance",
      "outputs": [
        {
          "internalType": "uint256",
          "name": "",
          "type": "uint256"
        }
      ],
      "stateMutability": "view",
      "type": "function"
    },
    {
      "inputs": [],
      "name": "getVaultBalance",
      "outputs": [
        {
          "internalType": "uint256",
          "name": "",
          "type": "uint256"
        }
      ],
      "stateMutability": "view",
      "type": "function"
    },
    {
      "inputs": [],
      "name": "owner",
      "outputs": [
        {
          "internalType": "address",
          "name": "",
          "type": "address"
        }
      ],
      "stateMutability": "view",
      "type": "function"
    },
    {
      "inputs": [],
      "name": "renounceOwnership",
      "outputs": [],
      "stateMutability": "nonpayable",
      "type": "function"
    },
    {
      "inputs": [
        {
          "internalType": "address",
          "name": "newOwner",
          "type": "address"
        }
      ],
      "name": "transferOwnership",
      "outputs": [],
      "stateMutability": "nonpayable",
      "type": "function"
    },
    {
      "inputs": [
        {
          "internalType": "uint256",
          "name": "amount",
          "type": "uint256"
        }
      ],
      "name": "withdrawal",
      "outputs": [],
      "stateMutability": "nonpayable",
      "type": "function"
    }
  ],
  "bytecode": "0x608060405234801561001057600080fd5b5061002d61002261003260201b60201c565b61003a60201b60201c565b6100fe565b600033905090565b60008060009054906101000a900473ffffffffffffffffffffffffffffffffffffffff169050816000806101000a81548173ffffffffffffffffffffffffffffffffffffffff021916908373ffffffffffffffffffffffffffffffffffffffff1602179055508173ffffffffffffffffffffffffffffffffffffffff168173ffffffffffffffffffffffffffffffffffffffff167f8be0079c531659141344cd1fd0a4f28419497f9722a3daafe3b4186f6b6457e060405160405180910390a35050565b6119038061010d6000396000f3fe6080604052600436106100e85760003560e01c80638da5cb5b1161008a578063df71983311610059578063df71983314610287578063e283b4dd1461029e578063ed12e8ef146102db578063f2fde38b14610306576100e8565b80638da5cb5b146102125780639e1592961461023d578063d0e30db014610254578063d3b5d1e01461025e576100e8565b80633a02a42d116100c65780633a02a42d1461016c5780633fbe0eaa146101a9578063715018a6146101d2578063835fc6ca146101e9576100e8565b806312798972146100ed57806326bfb10a146101045780633627ff451461012f575b600080fd5b3480156100f957600080fd5b5061010261032f565b005b34801561011057600080fd5b506101196104b3565b604051610126919061119c565b60405180910390f35b34801561013b57600080fd5b506101566004803603810190610151919061121a565b6104bd565b604051610163919061119c565b60405180910390f35b34801561017857600080fd5b50610193600480360381019061018e919061121a565b61051a565b6040516101a0919061119c565b60405180910390f35b3480156101b557600080fd5b506101d060048036038101906101cb9190611285565b610577565b005b3480156101de57600080fd5b506101e7610630565b005b3480156101f557600080fd5b50610210600480360381019061020b91906112de565b6106b8565b005b34801561021e57600080fd5b506102276108a5565b604051610234919061131a565b60405180910390f35b34801561024957600080fd5b506102526108ce565b005b61025c610a74565b005b34801561026a57600080fd5b5061028560048036038101906102809190611373565b610b7d565b005b34801561029357600080fd5b5061029c610c36565b005b3480156102aa57600080fd5b506102c560048036038101906102c091906113a0565b610f90565b6040516102d2919061119c565b60405180910390f35b3480156102e757600080fd5b506102f0610fb8565b6040516102fd919061119c565b60405180910390f35b34801561031257600080fd5b5061032d6004803603810190610328919061121a565b610fc0565b005b610337610c36565b6000600460003373ffffffffffffffffffffffffffffffffffffffff1673ffffffffffffffffffffffffffffffffffffffff16815260200190815260200160002060036004811061038b5761038a6113e0565b5b015490506000600460003373ffffffffffffffffffffffffffffffffffffffff1673ffffffffffffffffffffffffffffffffffffffff1681526020019081526020016000206003600481106103e3576103e26113e0565b5b0181905550600160009054906101000a900473ffffffffffffffffffffffffffffffffffffffff1673ffffffffffffffffffffffffffffffffffffffff16630f6798a533836040518363ffffffff1660e01b815260040161044592919061140f565b600060405180830381600087803b15801561045f57600080fd5b505af1158015610473573d6000803e3d6000fd5b505050507f47cee97cb7acd717b3c0aa1435d004cd5b3c8c57d70dbceb4e4458bbd60e39d433826040516104a892919061140f565b60405180910390a150565b6000600354905090565b6000600460008373ffffffffffffffffffffffffffffffffffffffff1673ffffffffffffffffffffffffffffffffffffffff168152602001908152602001600020600360048110610511576105106113e0565b5b01549050919050565b6000600460008373ffffffffffffffffffffffffffffffffffffffff1673ffffffffffffffffffffffffffffffffffffffff16815260200190815260200160002060006004811061056e5761056d6113e0565b5b01549050919050565b61057f6108a5565b73ffffffffffffffffffffffffffffffffffffffff163373ffffffffffffffffffffffffffffffffffffffff16146105ec576040517f08c379a00000000000000000000000000000000000000000000000000000000081526004016105e390611495565b60405180910390fd5b80600160006101000a81548173ffffffffffffffffffffffffffffffffffffffff021916908373ffffffffffffffffffffffffffffffffffffffff16021790555050565b6106386110b7565b73ffffffffffffffffffffffffffffffffffffffff166106566108a5565b73ffffffffffffffffffffffffffffffffffffffff16146106ac576040517f08c379a00000000000000000000000000000000000000000000000000000000081526004016106a390611501565b60405180910390fd5b6106b660006110bf565b565b600081116106fb576040517f08c379a00000000000000000000000000000000000000000000000000000000081526004016106f29061156d565b60405180910390fd5b80600460003373ffffffffffffffffffffffffffffffffffffffff1673ffffffffffffffffffffffffffffffffffffffff16815260200190815260200160002060006004811061074e5761074d6113e0565b5b01541015610791576040517f08c379a0000000000000000000000000000000000000000000000000000000008152600401610788906115d9565b60405180910390fd5b610799610c36565b80600460003373ffffffffffffffffffffffffffffffffffffffff1673ffffffffffffffffffffffffffffffffffffffff1681526020019081526020016000206000600481106107ec576107eb6113e0565b5b0160008282546107fc9190611628565b9250508190555080600360008282546108159190611628565b9250508190555060003390508073ffffffffffffffffffffffffffffffffffffffff166108fc839081150290604051600060405180830381858888f19350505050158015610867573d6000803e3d6000fd5b507f7fcf532c15f0a6db0bd6d0e038bea71d30d808c7d98cb3bf7268a95bf5081b65338360405161089992919061140f565b60405180910390a15050565b60008060009054906101000a900473ffffffffffffffffffffffffffffffffffffffff16905090565b6000600460003373ffffffffffffffffffffffffffffffffffffffff1673ffffffffffffffffffffffffffffffffffffffff168152602001908152602001600020600060048110610922576109216113e0565b5b0154905060008111610969576040517f08c379a00000000000000000000000000000000000000000000000000000000081526004016109609061156d565b60405180910390fd5b610971610c36565b6000600460003373ffffffffffffffffffffffffffffffffffffffff1673ffffffffffffffffffffffffffffffffffffffff1681526020019081526020016000206000600481106109c5576109c46113e0565b5b018190555080600360008282546109dc9190611628565b9250508190555060003390508073ffffffffffffffffffffffffffffffffffffffff166108fc839081150290604051600060405180830381858888f19350505050158015610a2e573d6000803e3d6000fd5b507f7fcf532c15f0a6db0bd6d0e038bea71d30d808c7d98cb3bf7268a95bf5081b653383604051610a6092919061140f565b60405180910390a1610a7061032f565b5050565b60003411610ab7576040517f08c379a0000000000000000000000000000000000000000000000000000000008152600401610aae906116a8565b60405180910390fd5b610abf610c36565b34600460003373ffffffffffffffffffffffffffffffffffffffff1673ffffffffffffffffffffffffffffffffffffffff168152602001908152602001600020600060048110610b1257610b116113e0565b5b016000828254610b2291906116c8565b925050819055503460036000828254610b3b91906116c8565b925050819055507fe1fffcc4923d04b559f4d29a8bfc6cda04eb5b0d3c460751c2402c5c5cc9109c3334604051610b7392919061140f565b60405180910390a1565b610b856108a5565b73ffffffffffffffffffffffffffffffffffffffff163373ffffffffffffffffffffffffffffffffffffffff1614610bf2576040517f08c379a0000000000000000000000000000000000000000000000000000000008152600401610be990611495565b60405180910390fd5b80600260006101000a81548173ffffffffffffffffffffffffffffffffffffffff021916908373ffffffffffffffffffffffffffffffffffffffff16021790555050565b6000600260009054906101000a900473ffffffffffffffffffffffffffffffffffffffff1673ffffffffffffffffffffffffffffffffffffffff16638e15f4736040518163ffffffff1660e01b8152600401602060405180830381865afa158015610ca5573d6000803e3d6000fd5b505050506040513d601f19601f82011682018060405250810190610cc99190611754565b9050600081905060004290506000600460003373ffffffffffffffffffffffffffffffffffffffff1673ffffffffffffffffffffffffffffffffffffffff168152602001908152602001600020600060048110610d2957610d286113e0565b5b0154905060003390506000821115610ea0576000600460008373ffffffffffffffffffffffffffffffffffffffff1673ffffffffffffffffffffffffffffffffffffffff168152602001908152602001600020600260048110610d8f57610d8e6113e0565b5b015490506000600460008473ffffffffffffffffffffffffffffffffffffffff1673ffffffffffffffffffffffffffffffffffffffff168152602001908152602001600020600160048110610de757610de66113e0565b5b015490506402540be400601f8287610dff9190611628565b8885610e0b91906116c8565b87610e169190611781565b610e209190611781565b610e2a9190611781565b610e34919061180a565b600460008573ffffffffffffffffffffffffffffffffffffffff1673ffffffffffffffffffffffffffffffffffffffff168152602001908152602001600020600360048110610e8657610e856113e0565b5b016000828254610e9691906116c8565b9250508190555050505b83600460008373ffffffffffffffffffffffffffffffffffffffff1673ffffffffffffffffffffffffffffffffffffffff168152602001908152602001600020600260048110610ef357610ef26113e0565b5b018190555082600460008373ffffffffffffffffffffffffffffffffffffffff1673ffffffffffffffffffffffffffffffffffffffff168152602001908152602001600020600160048110610f4b57610f4a6113e0565b5b01819055507f5f66d2a93b609bc6596b75c6dbb0e4f3f7cafd4b3b617157ff304d1076e583758183604051610f8192919061140f565b60405180910390a15050505050565b60046020528160005260406000208160048110610fac57600080fd5b01600091509150505481565b600047905090565b610fc86110b7565b73ffffffffffffffffffffffffffffffffffffffff16610fe66108a5565b73ffffffffffffffffffffffffffffffffffffffff161461103c576040517f08c379a000000000000000000000000000000000000000000000000000000000815260040161103390611501565b60405180910390fd5b600073ffffffffffffffffffffffffffffffffffffffff168173ffffffffffffffffffffffffffffffffffffffff16036110ab576040517f08c379a00000000000000000000000000000000000000000000000000000000081526004016110a2906118ad565b60405180910390fd5b6110b4816110bf565b50565b600033905090565b60008060009054906101000a900473ffffffffffffffffffffffffffffffffffffffff169050816000806101000a81548173ffffffffffffffffffffffffffffffffffffffff021916908373ffffffffffffffffffffffffffffffffffffffff1602179055508173ffffffffffffffffffffffffffffffffffffffff168173ffffffffffffffffffffffffffffffffffffffff167f8be0079c531659141344cd1fd0a4f28419497f9722a3daafe3b4186f6b6457e060405160405180910390a35050565b6000819050919050565b61119681611183565b82525050565b60006020820190506111b1600083018461118d565b92915050565b600080fd5b600073ffffffffffffffffffffffffffffffffffffffff82169050919050565b60006111e7826111bc565b9050919050565b6111f7816111dc565b811461120257600080fd5b50565b600081359050611214816111ee565b92915050565b6000602082840312156112305761122f6111b7565b5b600061123e84828501611205565b91505092915050565b6000611252826111dc565b9050919050565b61126281611247565b811461126d57600080fd5b50565b60008135905061127f81611259565b92915050565b60006020828403121561129b5761129a6111b7565b5b60006112a984828501611270565b91505092915050565b6112bb81611183565b81146112c657600080fd5b50565b6000813590506112d8816112b2565b92915050565b6000602082840312156112f4576112f36111b7565b5b6000611302848285016112c9565b91505092915050565b611314816111dc565b82525050565b600060208201905061132f600083018461130b565b92915050565b6000611340826111dc565b9050919050565b61135081611335565b811461135b57600080fd5b50565b60008135905061136d81611347565b92915050565b600060208284031215611389576113886111b7565b5b60006113978482850161135e565b91505092915050565b600080604083850312156113b7576113b66111b7565b5b60006113c585828601611205565b92505060206113d6858286016112c9565b9150509250929050565b7f4e487b7100000000000000000000000000000000000000000000000000000000600052603260045260246000fd5b6000604082019050611424600083018561130b565b611431602083018461118d565b9392505050565b600082825260208201905092915050565b7f6e6f74206f776e65720000000000000000000000000000000000000000000000600082015250565b600061147f600983611438565b915061148a82611449565b602082019050919050565b600060208201905081810360008301526114ae81611472565b9050919050565b7f4f776e61626c653a2063616c6c6572206973206e6f7420746865206f776e6572600082015250565b60006114eb602083611438565b91506114f6826114b5565b602082019050919050565b6000602082019050818103600083015261151a816114de565b9050919050565b7f6e6f2030207769746864726177616c0000000000000000000000000000000000600082015250565b6000611557600f83611438565b915061156282611521565b602082019050919050565b600060208201905081810360008301526115868161154a565b9050919050565b7f6c61636b206f662066756e647300000000000000000000000000000000000000600082015250565b60006115c3600d83611438565b91506115ce8261158d565b602082019050919050565b600060208201905081810360008301526115f2816115b6565b9050919050565b7f4e487b7100000000000000000000000000000000000000000000000000000000600052601160045260246000fd5b600061163382611183565b915061163e83611183565b925082821015611651576116506115f9565b5b828203905092915050565b7f6e6f2030206465706f7369740000000000000000000000000000000000000000600082015250565b6000611692600c83611438565b915061169d8261165c565b602082019050919050565b600060208201905081810360008301526116c181611685565b9050919050565b60006116d382611183565b91506116de83611183565b9250827fffffffffffffffffffffffffffffffffffffffffffffffffffffffffffffffff03821115611713576117126115f9565b5b828201905092915050565b6000819050919050565b6117318161171e565b811461173c57600080fd5b50565b60008151905061174e81611728565b92915050565b60006020828403121561176a576117696111b7565b5b60006117788482850161173f565b91505092915050565b600061178c82611183565b915061179783611183565b9250817fffffffffffffffffffffffffffffffffffffffffffffffffffffffffffffffff04831182151516156117d0576117cf6115f9565b5b828202905092915050565b7f4e487b7100000000000000000000000000000000000000000000000000000000600052601260045260246000fd5b600061181582611183565b915061182083611183565b9250826118305761182f6117db565b5b828204905092915050565b7f4f776e61626c653a206e6577206f776e657220697320746865207a65726f206160008201527f6464726573730000000000000000000000000000000000000000000000000000602082015250565b6000611897602683611438565b91506118a28261183b565b604082019050919050565b600060208201905081810360008301526118c68161188a565b905091905056fea264697066735822122047b912f0306e6ee17c1f5a662e8eab302553f5bf8b679aeaed5c2b9cb281229964736f6c634300080d0033",
  "linkReferences": {},
  "deployedLinkReferences": {}
}